{
  "_format": "hh-sol-artifact-1",
  "contractName": "SimpleFunding",
  "sourceName": "contracts/SimpleFunding.sol",
  "abi": [
    {
      "anonymous": false,
      "inputs": [
        {
          "indexed": true,
          "internalType": "address",
          "name": "previousOwner",
          "type": "address"
        },
        {
          "indexed": true,
          "internalType": "address",
          "name": "newOwner",
          "type": "address"
        }
      ],
      "name": "OwnershipTransferred",
      "type": "event"
    },
    {
      "anonymous": false,
      "inputs": [
        {
          "indexed": true,
          "internalType": "address",
          "name": "from",
          "type": "address"
        },
        {
          "indexed": false,
          "internalType": "uint256",
          "name": "amount",
          "type": "uint256"
        }
      ],
      "name": "ReceivedFunds",
      "type": "event"
    },
    {
      "inputs": [],
      "name": "fund",
      "outputs": [],
      "stateMutability": "payable",
      "type": "function"
    },
    {
      "inputs": [
        {
          "internalType": "address",
          "name": "",
          "type": "address"
        }
      ],
      "name": "funderAddressToAmount",
      "outputs": [
        {
          "internalType": "uint256",
          "name": "",
          "type": "uint256"
        }
      ],
      "stateMutability": "view",
      "type": "function"
    },
    {
      "inputs": [
        {
          "internalType": "uint256",
          "name": "",
          "type": "uint256"
        }
      ],
      "name": "funders",
      "outputs": [
        {
          "internalType": "address",
          "name": "",
          "type": "address"
        }
      ],
      "stateMutability": "view",
      "type": "function"
    },
    {
      "inputs": [],
      "name": "getFunders",
      "outputs": [
        {
          "internalType": "address[]",
          "name": "",
          "type": "address[]"
        }
      ],
      "stateMutability": "view",
      "type": "function"
    },
    {
      "inputs": [],
      "name": "owner",
      "outputs": [
        {
          "internalType": "address",
          "name": "",
          "type": "address"
        }
      ],
      "stateMutability": "view",
      "type": "function"
    },
    {
      "inputs": [],
      "name": "renounceOwnership",
      "outputs": [],
      "stateMutability": "nonpayable",
      "type": "function"
    },
    {
      "inputs": [
        {
          "internalType": "address",
          "name": "newOwner",
          "type": "address"
        }
      ],
      "name": "transferOwnership",
      "outputs": [],
      "stateMutability": "nonpayable",
      "type": "function"
    },
    {
      "inputs": [
        {
          "internalType": "address payable",
          "name": "_to",
          "type": "address"
        }
      ],
      "name": "withdrawTo",
      "outputs": [],
      "stateMutability": "nonpayable",
      "type": "function"
    }
  ],
  "bytecode": "0x608060405234801561001057600080fd5b5061002d61002261003260201b60201c565b61003a60201b60201c565b6100fe565b600033905090565b60008060009054906101000a900473ffffffffffffffffffffffffffffffffffffffff169050816000806101000a81548173ffffffffffffffffffffffffffffffffffffffff021916908373ffffffffffffffffffffffffffffffffffffffff1602179055508173ffffffffffffffffffffffffffffffffffffffff168173ffffffffffffffffffffffffffffffffffffffff167f8be0079c531659141344cd1fd0a4f28419497f9722a3daafe3b4186f6b6457e060405160405180910390a35050565b610c478061010d6000396000f3fe60806040526004361061007b5760003560e01c8063b60d42881161004e578063b60d428814610128578063dc0d3dff14610132578063ea63a0441461016f578063f2fde38b1461019a5761007b565b8063132ebbd614610080578063715018a6146100bd57806372b0d90c146100d45780638da5cb5b146100fd575b600080fd5b34801561008c57600080fd5b506100a760048036038101906100a291906107e2565b6101c3565b6040516100b49190610828565b60405180910390f35b3480156100c957600080fd5b506100d26101db565b005b3480156100e057600080fd5b506100fb60048036038101906100f69190610881565b610263565b005b34801561010957600080fd5b50610112610329565b60405161011f91906108bd565b60405180910390f35b610130610352565b005b34801561013e57600080fd5b5061015960048036038101906101549190610904565b6104ee565b60405161016691906108bd565b60405180910390f35b34801561017b57600080fd5b5061018461052d565b60405161019191906109ef565b60405180910390f35b3480156101a657600080fd5b506101c160048036038101906101bc91906107e2565b6105bb565b005b60026020528060005260406000206000915090505481565b6101e36106b3565b73ffffffffffffffffffffffffffffffffffffffff16610201610329565b73ffffffffffffffffffffffffffffffffffffffff1614610257576040517f08c379a000000000000000000000000000000000000000000000000000000000815260040161024e90610a6e565b60405180910390fd5b61026160006106bb565b565b61026b6106b3565b73ffffffffffffffffffffffffffffffffffffffff16610289610329565b73ffffffffffffffffffffffffffffffffffffffff16146102df576040517f08c379a00000000000000000000000000000000000000000000000000000000081526004016102d690610a6e565b60405180910390fd5b8073ffffffffffffffffffffffffffffffffffffffff166108fc479081150290604051600060405180830381858888f19350505050158015610325573d6000803e3d6000fd5b5050565b60008060009054906101000a900473ffffffffffffffffffffffffffffffffffffffff16905090565b66038d7ea4c6800034101561039c576040517f08c379a000000000000000000000000000000000000000000000000000000000815260040161039390610ada565b60405180910390fd5b6000600260003373ffffffffffffffffffffffffffffffffffffffff1673ffffffffffffffffffffffffffffffffffffffff168152602001908152602001600020541415610448576001339080600181540180825580915050600190039060005260206000200160009091909190916101000a81548173ffffffffffffffffffffffffffffffffffffffff021916908373ffffffffffffffffffffffffffffffffffffffff1602179055505b34600260003373ffffffffffffffffffffffffffffffffffffffff1673ffffffffffffffffffffffffffffffffffffffff16815260200190815260200160002060008282546104979190610b29565b925050819055503373ffffffffffffffffffffffffffffffffffffffff167f5741979df5f3e491501da74d3b0a83dd2496ab1f34929865b3e190a8ad75859a346040516104e49190610828565b60405180910390a2565b600181815481106104fe57600080fd5b906000526020600020016000915054906101000a900473ffffffffffffffffffffffffffffffffffffffff1681565b606060018054806020026020016040519081016040528092919081815260200182805480156105b157602002820191906000526020600020905b8160009054906101000a900473ffffffffffffffffffffffffffffffffffffffff1673ffffffffffffffffffffffffffffffffffffffff1681526020019060010190808311610567575b5050505050905090565b6105c36106b3565b73ffffffffffffffffffffffffffffffffffffffff166105e1610329565b73ffffffffffffffffffffffffffffffffffffffff1614610637576040517f08c379a000000000000000000000000000000000000000000000000000000000815260040161062e90610a6e565b60405180910390fd5b600073ffffffffffffffffffffffffffffffffffffffff168173ffffffffffffffffffffffffffffffffffffffff1614156106a7576040517f08c379a000000000000000000000000000000000000000000000000000000000815260040161069e90610bf1565b60405180910390fd5b6106b0816106bb565b50565b600033905090565b60008060009054906101000a900473ffffffffffffffffffffffffffffffffffffffff169050816000806101000a81548173ffffffffffffffffffffffffffffffffffffffff021916908373ffffffffffffffffffffffffffffffffffffffff1602179055508173ffffffffffffffffffffffffffffffffffffffff168173ffffffffffffffffffffffffffffffffffffffff167f8be0079c531659141344cd1fd0a4f28419497f9722a3daafe3b4186f6b6457e060405160405180910390a35050565b600080fd5b600073ffffffffffffffffffffffffffffffffffffffff82169050919050565b60006107af82610784565b9050919050565b6107bf816107a4565b81146107ca57600080fd5b50565b6000813590506107dc816107b6565b92915050565b6000602082840312156107f8576107f761077f565b5b6000610806848285016107cd565b91505092915050565b6000819050919050565b6108228161080f565b82525050565b600060208201905061083d6000830184610819565b92915050565b600061084e82610784565b9050919050565b61085e81610843565b811461086957600080fd5b50565b60008135905061087b81610855565b92915050565b6000602082840312156108975761089661077f565b5b60006108a58482850161086c565b91505092915050565b6108b7816107a4565b82525050565b60006020820190506108d260008301846108ae565b92915050565b6108e18161080f565b81146108ec57600080fd5b50565b6000813590506108fe816108d8565b92915050565b60006020828403121561091a5761091961077f565b5b6000610928848285016108ef565b91505092915050565b600081519050919050565b600082825260208201905092915050565b6000819050602082019050919050565b610966816107a4565b82525050565b6000610978838361095d565b60208301905092915050565b6000602082019050919050565b600061099c82610931565b6109a6818561093c565b93506109b18361094d565b8060005b838110156109e25781516109c9888261096c565b97506109d483610984565b9250506001810190506109b5565b5085935050505092915050565b60006020820190508181036000830152610a098184610991565b905092915050565b600082825260208201905092915050565b7f4f776e61626c653a2063616c6c6572206973206e6f7420746865206f776e6572600082015250565b6000610a58602083610a11565b9150610a6382610a22565b602082019050919050565b60006020820190508181036000830152610a8781610a4b565b9050919050565b7f4e656564206d6f72652045544800000000000000000000000000000000000000600082015250565b6000610ac4600d83610a11565b9150610acf82610a8e565b602082019050919050565b60006020820190508181036000830152610af381610ab7565b9050919050565b7f4e487b7100000000000000000000000000000000000000000000000000000000600052601160045260246000fd5b6000610b348261080f565b9150610b3f8361080f565b9250827fffffffffffffffffffffffffffffffffffffffffffffffffffffffffffffffff03821115610b7457610b73610afa565b5b828201905092915050565b7f4f776e61626c653a206e6577206f776e657220697320746865207a65726f206160008201527f6464726573730000000000000000000000000000000000000000000000000000602082015250565b6000610bdb602683610a11565b9150610be682610b7f565b604082019050919050565b60006020820190508181036000830152610c0a81610bce565b905091905056fea264697066735822122096a81c2c7f8047fe3357291f617484352dabdb0c2fe913dc2a22ef46ad4e8bda64736f6c634300080a0033",
  "linkReferences": {},
  "deployedLinkReferences": {}
}